:020000040040BA
:10000000783400206901400065014000650140002E
:1000100065014000650140006501400000000000EE
:10002000000000000000000000000000650140002A
:1000300065014000000000006501400065014000CE
:100040006501400065014000650140006501400018
:100050006501400065014000650140006501400008
:1000600065014000650140006501400065014000F8
:1000700065014000650140006501400065014000E8
:1000800065014000650140006501400065014000D8
:1000900065014000650140006501400065014000C8
:1000A00065014000650140006501400065014000B8
:1000B00065014000650140006501400065014000A8
:1000C0006501400065014000650140006501400098
:1000D0006501400065014000650140006501400088
:1000E000650140000000000000000000000000006A
:1000F000000000000000000010B5054C237833B963
:10010000044B13B10448AFF300800123237010BDEA
:100110003404002000000000140440000C4B43B1E4
:100120000C480D4910B5AFF300800C48036823B9A3
:1001300010BD0A48036833B97047094B002BF7D04C
:10014000BDE810401847064B002BF5D0184700BFFC
:100150000000000014044000380400201404400093
:1001600000000000FEE7000008B5104B104A9A425C
:1001700009D00E4B0E4A03E01168196004330432B3
:100180000C498B42F8D30C4B02E000221A60043376
:100190000A4A9342F9D30A4A0A4B23F07F03936039
:1001A000094B9847094B9847FEE700BF0000002025
:1001B000140440003404002034040020740400209F
:1001C00000ED00E0000040007D02400071024000B0
:1001D0004FF4A0621F4B1A60A3F5C0631B6A13F0B3
:1001E000807F07D11C4A1D4B1A621C4B9B6E13F07B
:1001F000010FFAD01A4A194B1A62184B9B6E13F46E
:10020000803FFAD0154A136B23F0030343F0010338
:100210001363124B9B6E13F0080FFAD0114A0F4B69
:100220009A620E4B9B6E13F0020FFAD011220B4B09
:100230001A630A4B9B6E13F0080FFAD01222074B79
:100240001A63064B9B6E13F0080FFAD0064A074B51
:100250001A607047000A0E400908370000040E407B
:1002600009083701013F1320000E27070000002076
:1002700008B5014B9847FEE7D101400070B50F4E1D
:100280000F4D761BB61018BF002405D0013455F869
:10029000043B9847A642F9D10A4E0B4D761B00F05D
:1002A000A7F8B61018BF002406D0013455F8043B57
:1002B0009847A642F9D170BD70BD00BFFC03400055
:1002C000FC03400004044000FC034000024B13B157
:1002D000024800F005B8704700000000ED02400041
:1002E000002301461A46184600F01EB838B50A4CDD
:1002F0000A4D641BA4100AD004F18043013B05EBB6
:100300008305013C55F804399847002CF9D1BDE824
:10031000384000F077B800BF1404400010044000DB
:10032000704700BF704700BF2DE9F8432C4D0646CB
:10033000286898460F469146FFF7F2FF294B1C6844
:10034000D4F84831002B3ED05A681F2A1CDC02F139
:10035000010E76B103EB82010124C1F88890D3F835
:10036000880194402043022EC3F88801C1F8088117
:1003700023D00232C3F804E0286843F82270FFF764
:10038000D1FF0020BDE8F883174B0BB34FF4C870C2
:10039000AFF300800346D8B1D4F8482102600021B1
:1003A00041600A46C4F848014FF0010EC0F88811B8
:1003B000C0F88C11002EDCD0CCE7D3F88C110C43A4
:1003C000C3F88C41D5E704F5A673C4F84831BBE700
:1003D0002868FFF7A7FF4FF0FF30BDE8F88300BFA4
:1003E00030040020EC034000000000000800002062
:1003F000F8B500BFF8BC08BC9E467047CD0240006F
:100400001D014000F8B500BFF8BC08BC9E4670470F
:04041000F9004000AF
:1004140000093D000000000000000000F40200207C
:100424005C030020C4030020000000000000000062
:1004340000000000000000000000000000000000B8
:1004440000000000000000000000000000000000A8
:100454000000000000000000000000000000000098
:100464000000000000000000000000000000000088
:100474000000000000000000000000000000000078
:100484000000000000000000000000000000000068
:100494000000000000000000000000000000000058
:1004A4000000000000000000000000000000000048
:1004B4000000000000000000000000000000000038
:1004C40001000000000000000E33CDAB34126DE6D5
:1004D400ECDE05000B00000000000000000000003E
:1004E4000000000000000000000000000000000008
:1004F40000000000000000000000000000000000F8
:1005040000000000000000000000000000000000E7
:1005140000000000000000000000000000000000D7
:04084400500400203C
:0400000500400000B7
:00000001FF
